{
  "_format": "hh-sol-artifact-1",
  "contractName": "Token",
  "sourceName": "contracts/Token.sol",
  "abi": [
    {
      "inputs": [],
      "stateMutability": "nonpayable",
      "type": "constructor"
    },
    {
      "inputs": [
        {
          "internalType": "address",
          "name": "owner",
          "type": "address"
        },
        {
          "internalType": "address",
          "name": "spender",
          "type": "address"
        }
      ],
      "name": "allowance",
      "outputs": [
        {
          "internalType": "uint256",
          "name": "",
          "type": "uint256"
        }
      ],
      "stateMutability": "view",
      "type": "function"
    },
    {
      "inputs": [
        {
          "internalType": "address",
          "name": "spender",
          "type": "address"
        },
        {
          "internalType": "uint256",
          "name": "value",
          "type": "uint256"
        }
      ],
      "name": "approve",
      "outputs": [
        {
          "internalType": "bool",
          "name": "",
          "type": "bool"
        }
      ],
      "stateMutability": "nonpayable",
      "type": "function"
    },
    {
      "inputs": [
        {
          "internalType": "address",
          "name": "",
          "type": "address"
        }
      ],
      "name": "balanceOf",
      "outputs": [
        {
          "internalType": "uint256",
          "name": "",
          "type": "uint256"
        }
      ],
      "stateMutability": "view",
      "type": "function"
    },
    {
      "inputs": [
        {
          "internalType": "address payable",
          "name": "dest",
          "type": "address"
        }
      ],
      "name": "burn",
      "outputs": [],
      "stateMutability": "nonpayable",
      "type": "function"
    },
    {
      "inputs": [],
      "name": "decimals",
      "outputs": [
        {
          "internalType": "uint256",
          "name": "",
          "type": "uint256"
        }
      ],
      "stateMutability": "view",
      "type": "function"
    },
    {
      "inputs": [],
      "name": "getNumTokenHolders",
      "outputs": [
        {
          "internalType": "uint256",
          "name": "",
          "type": "uint256"
        }
      ],
      "stateMutability": "view",
      "type": "function"
    },
    {
      "inputs": [
        {
          "internalType": "uint256",
          "name": "index",
          "type": "uint256"
        }
      ],
      "name": "getTokenHolder",
      "outputs": [
        {
          "internalType": "address",
          "name": "",
          "type": "address"
        }
      ],
      "stateMutability": "view",
      "type": "function"
    },
    {
      "inputs": [
        {
          "internalType": "address",
          "name": "payee",
          "type": "address"
        }
      ],
      "name": "getWithdrawableDividend",
      "outputs": [
        {
          "internalType": "uint256",
          "name": "",
          "type": "uint256"
        }
      ],
      "stateMutability": "view",
      "type": "function"
    },
    {
      "inputs": [],
      "name": "mint",
      "outputs": [],
      "stateMutability": "payable",
      "type": "function"
    },
    {
      "inputs": [],
      "name": "name",
      "outputs": [
        {
          "internalType": "string",
          "name": "",
          "type": "string"
        }
      ],
      "stateMutability": "view",
      "type": "function"
    },
    {
      "inputs": [],
      "name": "recordDividend",
      "outputs": [],
      "stateMutability": "payable",
      "type": "function"
    },
    {
      "inputs": [],
      "name": "symbol",
      "outputs": [
        {
          "internalType": "string",
          "name": "",
          "type": "string"
        }
      ],
      "stateMutability": "view",
      "type": "function"
    },
    {
      "inputs": [],
      "name": "totalSupply",
      "outputs": [
        {
          "internalType": "uint256",
          "name": "",
          "type": "uint256"
        }
      ],
      "stateMutability": "view",
      "type": "function"
    },
    {
      "inputs": [
        {
          "internalType": "address",
          "name": "to",
          "type": "address"
        },
        {
          "internalType": "uint256",
          "name": "value",
          "type": "uint256"
        }
      ],
      "name": "transfer",
      "outputs": [
        {
          "internalType": "bool",
          "name": "",
          "type": "bool"
        }
      ],
      "stateMutability": "nonpayable",
      "type": "function"
    },
    {
      "inputs": [
        {
          "internalType": "address",
          "name": "from",
          "type": "address"
        },
        {
          "internalType": "address",
          "name": "to",
          "type": "address"
        },
        {
          "internalType": "uint256",
          "name": "value",
          "type": "uint256"
        }
      ],
      "name": "transferFrom",
      "outputs": [
        {
          "internalType": "bool",
          "name": "",
          "type": "bool"
        }
      ],
      "stateMutability": "nonpayable",
      "type": "function"
    },
    {
      "inputs": [
        {
          "internalType": "address payable",
          "name": "dest",
          "type": "address"
        }
      ],
      "name": "withdrawDividend",
      "outputs": [],
      "stateMutability": "nonpayable",
      "type": "function"
    },
    {
      "stateMutability": "payable",
      "type": "receive"
    }
  ],
  "bytecode": "0x601260015560c0604052600a6080819052692a32b9ba103a37b5b2b760b11b60a090815261003091600291906100af565b5060408051808201909152600480825263151154d560e21b602090920191825261005c916003916100af565b5034801561006957600080fd5b50600680546001810182556000919091527ff652222313e28459528d920b65115c16c04f3efc82aaedc97be59f3f377c0d3f0180546001600160a01b0319169055610142565b828054600181600116156101000203166002900490600052602060002090601f016020900481019282601f106100f057805160ff191683800117855561011d565b8280016001018555821561011d579182015b8281111561011d578251825591602001919060010190610102565b5061012992915061012d565b5090565b5b80821115610129576000815560010161012e565b610fc680620001526000396000f3fe6080604052600436106100f75760003560e01c806389afcb441161008a578063a4138b9b11610059578063a4138b9b14610372578063a9059cbb146103a5578063ca55954c146103de578063dd62ed3e1461042457610142565b806389afcb44146102e257806395d89b41146103155780639c53c0ca1461032a578063a0ced69d1461035d57610142565b806323b872dd116100c657806323b872dd1461024f578063313ce5671461029257806350ca7555146102a757806370a08231146102af57610142565b806306fdde0314610147578063095ea7b3146101d15780631249c58b1461021e57806318160ddd1461022857610142565b36610142576040805162461bcd60e51b8152602060048201526016602482015275111a5c9958dd08115512081b9bdd08185b1b1bddd95960521b604482015290519081900360640190fd5b600080fd5b34801561015357600080fd5b5061015c61045f565b6040805160208082528351818301528351919283929083019185019080838360005b8381101561019657818101518382015260200161017e565b50505050905090810190601f1680156101c35780820380516001836020036101000a031916815260200191505b509250505060405180910390f35b3480156101dd57600080fd5b5061020a600480360360408110156101f457600080fd5b506001600160a01b0381351690602001356104ea565b604080519115158252519081900360200190f35b610226610519565b005b34801561023457600080fd5b5061023d61059d565b60408051918252519081900360200190f35b34801561025b57600080fd5b5061020a6004803603606081101561027257600080fd5b506001600160a01b038135811691602081013590911690604001356105a3565b34801561029e57600080fd5b5061023d610677565b61022661067d565b3480156102bb57600080fd5b5061023d600480360360208110156102d257600080fd5b50356001600160a01b0316610775565b3480156102ee57600080fd5b506102266004803603602081101561030557600080fd5b50356001600160a01b0316610787565b34801561032157600080fd5b5061015c6108a1565b34801561033657600080fd5b506102266004803603602081101561034d57600080fd5b50356001600160a01b03166108fc565b34801561036957600080fd5b5061023d6109a5565b34801561037e57600080fd5b5061023d6004803603602081101561039557600080fd5b50356001600160a01b03166109af565b3480156103b157600080fd5b5061020a600480360360408110156103c857600080fd5b506001600160a01b0381351690602001356109ca565b3480156103ea57600080fd5b506104086004803603602081101561040157600080fd5b50356109e0565b604080516001600160a01b039092168252519081900360200190f35b34801561043057600080fd5b5061023d6004803603604081101561044757600080fd5b506001600160a01b0381358116916020013516610a5b565b6002805460408051602060018416156101000260001901909316849004601f810184900484028201840190925281815292918301828280156104e25780601f106104b7576101008083540402835291602001916104e2565b820191906000526020600020905b8154815290600101906020018083116104c557829003601f168201915b505050505081565b3360009081526005602090815260408083206001600160a01b0386168452909152902081905560015b92915050565b60003411610557576040805162461bcd60e51b815260206004820152600660248201526509cde408aa8960d31b604482015290519081900360640190fd5b336000908152600460205260409020546105719034610a86565b336000908152600460205260408120919091555461058f9034610a86565b60005561059b33610ae7565b565b60005481565b6001600160a01b0383166000908152600560209081526040808320338452909152812054821115610610576040805162461bcd60e51b8152602060048201526012602482015271105b1b1bddd85b98d948195e18d95959195960721b604482015290519081900360640190fd5b6001600160a01b038416600090815260056020908152604080832033845290915290205461063e9083610b9f565b6001600160a01b038516600090815260056020908152604080832033845290915290205561066d848484610be1565b5060019392505050565b60015481565b600034116106c3576040805162461bcd60e51b815260206004820152600e60248201526d115b5c1d1e48191a5d9a59195b9960921b604482015290519081900360640190fd5b3460015b600654811015610771576000600682815481106106e057fe5b60009182526020808320909101546001600160a01b0316808352600490915260409091205490915080156107675760008054610726906107208785610cc2565b90610d1b565b6001600160a01b03841660009081526008602052604090205490915061074c9082610a86565b6001600160a01b038416600090815260086020526040902055505b50506001016106c7565b5050565b60046020526000908152604090205481565b33600090815260046020526040902054806107db576040805162461bcd60e51b815260206004820152600f60248201526e2737ba3434b733903a3790313ab93760891b604482015290519081900360640190fd5b336000908152600460205260408120819055546107f89082610b9f565b60005561080433610d5d565b6040516000906001600160a01b0384169083908381818185875af1925050503d806000811461084f576040519150601f19603f3d011682016040523d82523d6000602084013e610854565b606091505b505090508061089c576040805162461bcd60e51b815260206004820152600f60248201526e115512081cd95b990819985a5b1959608a1b604482015290519081900360640190fd5b505050565b6003805460408051602060026001851615610100026000190190941693909304601f810184900484028201840190925281815292918301828280156104e25780601f106104b7576101008083540402835291602001916104e2565b336000908152600860205260409020548061094c576040805162461bcd60e51b815260206004820152600b60248201526a139bc8191a5d9a59195b9960aa1b604482015290519081900360640190fd5b33600090815260086020526040808220829055516001600160a01b0384169083908381818185875af1925050503d806000811461084f576040519150601f19603f3d011682016040523d82523d6000602084013e610854565b6006546000190190565b6001600160a01b031660009081526008602052604090205490565b60006109d7338484610be1565b50600192915050565b600080821180156109f2575060065482105b610a33576040805162461bcd60e51b815260206004820152600d60248201526c092dcecc2d8d2c840d2dcc8caf609b1b604482015290519081900360640190fd5b60068281548110610a4057fe5b6000918252602090912001546001600160a01b031692915050565b6001600160a01b03918216600090815260056020908152604080832093909416825291909152205490565b600082820183811015610ae0576040805162461bcd60e51b815260206004820152601b60248201527f536166654d6174683a206164646974696f6e206f766572666c6f770000000000604482015290519081900360640190fd5b9392505050565b6001600160a01b038116610afa57610b9c565b6001600160a01b038116600090815260046020526040902054610b1c57610b9c565b6001600160a01b03811660009081526007602052604090205415610b3f57610b9c565b600680546001600160a01b0383166000818152600760205260408120839055600183018455929092527ff652222313e28459528d920b65115c16c04f3efc82aaedc97be59f3f377c0d3f0180546001600160a01b03191690911790555b50565b6000610ae083836040518060400160405280601e81526020017f536166654d6174683a207375627472616374696f6e206f766572666c6f770000815250610e4d565b6001600160a01b038316600090815260046020526040902054811115610c45576040805162461bcd60e51b8152602060048201526014602482015273496e73756666696369656e742062616c616e636560601b604482015290519081900360640190fd5b6001600160a01b038316600090815260046020526040902054610c689082610b9f565b6001600160a01b038085166000908152600460205260408082209390935590841681522054610c979082610a86565b6001600160a01b038316600090815260046020526040902055610cb983610ee4565b61089c82610ae7565b600082610cd157506000610513565b82820282848281610cde57fe5b0414610ae05760405162461bcd60e51b8152600401808060200182810382526021815260200180610f706021913960400191505060405180910390fd5b6000610ae083836040518060400160405280601a81526020017f536166654d6174683a206469766973696f6e206279207a65726f000000000000815250610f0a565b6001600160a01b03811660009081526007602052604090205480610d815750610b9c565b60065460001901818114610e0257600060068281548110610d9e57fe5b600091825260209091200154600680546001600160a01b039092169250829185908110610dc757fe5b600091825260208083209190910180546001600160a01b0319166001600160a01b039485161790559290911681526007909152604090208290555b6006805480610e0d57fe5b60008281526020808220830160001990810180546001600160a01b03191690559092019092556001600160a01b0385168252600790526040812055505050565b60008184841115610edc5760405162461bcd60e51b81526004018080602001828103825283818151815260200191508051906020019080838360005b83811015610ea1578181015183820152602001610e89565b50505050905090810190601f168015610ece5780820380516001836020036101000a031916815260200191505b509250505060405180910390fd5b505050900390565b6001600160a01b038116600090815260046020526040902054610b9c57610b9c81610d5d565b60008183610f595760405162461bcd60e51b8152602060048201818152835160248401528351909283926044909101919085019080838360008315610ea1578181015183820152602001610e89565b506000838581610f6557fe5b049594505050505056fe536166654d6174683a206d756c7469706c69636174696f6e206f766572666c6f77a2646970667358221220e4faa1cf50f22441795831f700a0dfbbc0f0440cef7081f981f86d1249dc163064736f6c63430007000033",
  "linkReferences": {},
  "deployedLinkReferences": {}
}